:020000040800F2
:100000008014002001010008AF2100087F1F0008B4
:10001000AD2100086D020008553D000800000000F9
:10002000000000000000000000000000352500086E
:100030008903000800000000332500083725000868
:100040001B0100081B0100081B0100081B01000820
:100050001B0100081B0100081B0100081B01000810
:100060001B0100081B0100084D0400081B010008CB
:1000700059030008650300081B0100081B01000864
:10008000710300087D0300081B010008E13C000823
:10009000ED3C00081B0100081B0100081B010008C3
:1000A0001B0100081B0100081B0100081B010008C0
:1000B0001B0100081B0100081B0100081B010008B0
:1000C0001B0100081B0100081B0100081B010008A0
:1000D0001B0100081B0100081B0100081B01000890
:1000E0001B0100081B0100081B010008DFF80CD0F1
:1000F00000F06CF80048004791420008801400208E
:100100000648804706480047FEE7FEE7FEE7FEE7B1
:10011000FEE7FEE7FEE7FEE7FEE7FEE7DD25000877
:10012000ED000008202A04DB203A21FA02F0002129
:10013000704721FA02F3D040C2F1200291400843F7
:100140001946704740EA01039B0703D009E008C93C
:10015000121F08C0042AFAD203E011F8013B00F88C
:10016000013B521EF9D270472DE9F05F0546002091
:1001700092469B4688460646814640241BE0284618
:10018000414647462246FFF7CDFF53465A46C01A1E
:10019000914110D311461846224600F029F82D1A35
:1001A00067EB01084F4622460120002100F020F8AD
:1001B00017EB00094E41201EA4F10104DFDC484684
:1001C00031462A464346BDE8F09F0000064C074DE5
:1001D00006E0E06840F0010394E807009847103417
:1001E000AC42F6D3FFF786FF684300088843000857
:1001F000202A04DB203A00FA02F1002070479140E7
:10020000C2F1200320FA03F319439040704770B500
:100210008D1810F8014B14F0030201D110F8012BD6
:10022000231106D110F8013B03E010F8016B01F82F
:10023000016B521EF9D1ABB110F8012B04F00C0484
:100240008A1A0C2C03D0A2EB84129B1C08E010F835
:10025000014BA2EB0422F8E712F8014B01F8014B25
:100260005B1EF9D5A942D4D3002070BDFEE7002063
:1002700070470020704700002DE9F0472B48D0F868
:100280001842206A01284DD10021284802F057FF6A
:1002900007460121254802F052FFDFF894900646F8
:1002A0004FF00008EFB13A4621464846FFF74AFFB3
:1002B00000211E4802F033FFC4F8208084F8248017
:1002C0001CA003F069FD002506E000BF19F8051029
:1002D0001BA003F061FD6D1CBD42F7D31AA003F013
:1002E0005BFDFEB1324621461148FFF72BFF01218D
:1002F0000E4802F014FFC4F8208084F8248013A074
:1003000003F04AFD00254F4604E0795D0CA003F0A0
:1003100043FD6D1CB542F8D30BA003F03DFD2078E2
:1003200000F034F80020BDE8F0870000BC07002092
:100330006C100020526563427566665F303A20009B
:1003400020253032780000000D0A0000526563421B
:100350007566665F313A2000014800F07BB8000006
:1003600078070020014800F075B80000340700202D
:10037000014800F06FB80000AC060020014800F012
:1003800069B80000F00600207047000070B5044610
:10039000014624A003F000FD284D0123284A2948E6
:1003A0000D2C1DD2DFE804F01C1C1C1C1C1C1C1C8A
:1003B0001C1C07151D00AC786978012C06D0022C96
:1003C00004D0032C0CD1490091701CE003EB4101D7
:1003D000FAE76878401E83401B4841889943418072
:1003E00070BD6C780021072C0DD2DFE804F00C04FE
:1003F000080E10131700517841F0020102E0517805
:1004000021F002015170037070BD5170DCE71224BD
:100410005470D9E7517841F00101F3E7517821F0A8
:100420000101EFE74550315F4F55542C2072657044
:100430005F6964783A202569000000006C10002094
:10044000020000200100002052000020102000F0D7
:1004500067B900002DE9F05FC16B0C6801680B689B
:10046000D0F840C0042202FA0CF2494DDFF824A172
:10047000494E4A4FDFF828B1DFF828E122422CD05C
:100480005A072AD50A68920603D40A6822F00402A1
:100490000A600168A94201D1042219E0514501D145
:1004A000402215E0B14202D14FF4806210E0B9421F
:1004B00002D14FF480420BE0594502D14FF4802223
:1004C00006E0714502D14FF4800201E04FF08062F6
:1004D0002F4908394A60C16A3BE04FF0020808FA28
:1004E0000CF818EA040F4FF000094FF0010235D064
:1004F0005FEA837832D50B689B0605D40B6823F03E
:100500000A030B6080F821200168A94201D1022270
:1005100019E0514501D1202215E0B14202D14FF43A
:10052000007210E0B94202D14FF400520BE059457D
:1005300002D14FF4003206E0714502D14FF40012AF
:1005400001E04FF00072124908394A6080F82090AB
:10055000816A00291AD0BDE8F05F0847082505FA2E
:100560000CF5254212D01B0710D50B6823F00E03A3
:100570000B6090F84010C36B02FA01F1596082637E
:1005800080F8212080F82090016BE2E7BDE8F09F21
:10059000080002401C0002403000024044000240BB
:1005A000580002406C00024070B504007ED04C49F7
:1005B000206888421BD04A491431884217D04849E4
:1005C0002831884213D046493C3188420FD04449F3
:1005D000503188420BD042496431884207D04049AB
:1005E0007831884203D0AA213EA003F027FE60683C
:1005F00040B1102806D0B0F5804F03D0AB2139A010
:1006000003F01CFEA068402804D018B1AC2135A02E
:1006100003F014FEE068802804D018B1AD2131A0A9
:1006200003F00CFE206948B1B0F5807F06D0B0F52C
:10063000007F03D0AE212BA003F000FE606948B11B
:10064000B0F5806F06D0B0F5006F03D0AF2125A0C4
:1006500003F0F4FDA06928B1202803D0B02121A027
:1006600003F0ECFDE06960B1B0F5805F09D0B0F552
:10067000005F06D0B0F5405F03D0B12119A003F0B0
:10068000DDFD04CC1648142140421044B0FBF1F0CB
:100690008000E06312480838A06302206077116888
:1006A00043F6F0708143D4E9000300E016E01843FC
:1006B000D4E902352B43184323691843636918436F
:1006C000A36918430843106000206062A062E062E2
:1006D0002063606301216177207770BD012070BDC8
:1006E000080002402E2E2F447269766572732F53D4
:1006F000544D3332463178785F48414C5F447269DB
:100700007665722F5372632F73746D33326631784E
:10071000785F68616C5F646D612E630070470000F4
:10072000044910B50A68024202D00860FFF7F6FFDC
:1007300010BD0000140401402DE9F84FDFF8A8B205
:100740000D4604464FF0000958450FD0A748844293
:100750000CD0A748844209D0A648844206D0A648B7
:10076000844203D0CD21A5A003F068FD28680104D0
:10077000090C01D0000C03D0CE21A0A003F05EFD37
:100780006868F8B101281DD011281BD0022819D0A3
:10079000122817D0A849884214D0A849884211D0FD
:1007A000A74988420ED0A74988420BD0A649884263
:1007B00008D0A649884205D0032803D0CF218FA0B6
:1007C00003F03CFD00274FF0010A00BF2E680AFA33
:1007D00007F806EA080646456FD15C450FD0834806
:1007E00084420CD08248844209D08248844206D098
:1007F0008148844203D0DD2180A003F01FFD8E4894
:1008000069680A1A814259D00EDC032976D006DCC9
:10081000002953D0012919D002296AD131E01129C8
:1008200021D0122965D13AE0B2F5881F46D006DC06
:10083000B2F5803F42D0B2F5801F5AD13EE0B2F50A
:10084000001F3BD0B2F5041F53D137E0E8680228FF
:1008500007D0012805D0032803D0E52167A003F0C5
:10086000EDFCE8683FE0E868022807D0012805D0E1
:10087000032803D0EC2161A003F0E0FCE868001D30
:1008800031E0E868022807D0012805D0032803D00A
:10089000F3215AA003F0D2FCE868083023E0E868AE
:1008A000022807D0012805D0032803D0FA2153A03D
:1008B00003F0C4FCE8680C3015E089E0A86888B152
:1008C000012812D0022808D040F207114BA003F0F3
:1008D000B5FCA86830B1012807D04FF00809C4F86A
:1008E000148006E00420814603E04FF00809C4F8B4
:1008F0001080FF2E05D8224605E0FFE74FF00000EC
:10090000F1E704F104024FEA870001D9A0F12000C9
:1009100013684FF00F0101FA00FC23EA0C0309FAF7
:1009200000FC43EA0C0313606868C00056D54848D1
:10093000826942F001028261806927F0030200F0BF
:1009400001000090434802449068BB071B0F994088
:1009500088435C4501D100210FE024498C4201D13C
:1009600001210AE022498C4201D1022105E02149FE
:100970008C4201D1032100E00421994001439160A0
:100980006868C0033448016801D5314300E0B143D1
:100990000160686880033148016801D5314300E097
:1009A000B14301606868C00205D52C48001D01688C
:1009B0003143016004E02949091D0868B04308601B
:1009C0006868800205D52549083108683043086009
:1009D00004E0224808300168B14301607F1C102FF9
:1009E000FFF4F4AEBDE8F88F00080140000C0140B0
:1009F0000010014000140140001801402E2E2F4429
:100A00007269766572732F53544D3332463178785C
:100A10005F48414C5F4472697665722F5372632F51
:100A200073746D3332663178785F68616C5F6770BC
:100A3000696F2E63000000000000111000002110FB
:100A400000003110000012100000221000003210CF
:100A50000010024000000140000401400404014075
:100A600070B515460C00064604D140F2E31108A00B
:100A700003F0E4FB45B1012D04D04FF4F27104A062
:100A800003F0DCFB346170BD2004306170BD0000F8
:100A90002E2E2F447269766572732F53544D333264
:100AA000463178785F48414C5F4472697665722FB1
:100AB0005372632F73746D3332663178785F686177
:100AC0006C5F6770696F2E630000000001488068EA
:100AD000704700007C0500200248816802781144BC
:100AE000816070477C050020074810B5016841F01F
:100AF00010010160032000F0F1F8002000F006F87A
:100B000000F024F8002010BD0020024070B50D4D0B
:100B100004464FF47A712878B1FBF0F00A4909686D
:100B2000B1FBF0F001F077F848B9102C07D20022A1
:100B30002146501E00F082F800206C6070BD01203C
:100B400070BD00007C05002088050020214808B504
:100B5000816941F001018161816901F00101009128
:100B6000C16941F08051C161C06900F080500090BE
:100B7000032000F0B3F8002211466FF00B0000F0E4
:100B80005DF8002211466FF00A0000F057F80022CD
:100B900011466FF0090000F051F800221146501F75
:100BA00000F04CF800221146101F00F047F8002218
:100BB0001146901E00F042F800221146501E00F02F
:100BC0003DF80548416821F0E06141F00071416065
:100BD00008BD0000001002400000014010B50400F4
:100BE00003D5CE2106A003F029FB04F01F0101204C
:100BF00088406109890001F1E021C1F8000110BDC0
:100C00002E2E2F447269766572732F53544D3332F2
:100C1000463178785F48414C5F4472697665722F3F
:100C20005372632F73746D3332663178785F686105
:100C30006C5F636F727465782E63000070B5154643
:100C40000C460646102A03D3BA2114A003F0F6FA84
:100C5000102C03D3BB2111A003F0F0FA1E4800684A
:100C6000C0F30223C3F107022046042A00D904225C
:100C7000191D072901D2002300E0DB1E012404FA1C
:100C800002F1491E014099409C40641E2C402143C2
:100C90003046BDE8704001F08BBA00002E2E2F4484
:100CA0007269766572732F53544D333246317878BA
:100CB0005F48414C5F4472697665722F5372632FAF
:100CC00073746D3332663178785F68616C5F636F1F
:100CD000727465782E6300000CED00E010B50446D8
:100CE00007280BD0062C09D0052C07D0042C05D0E2
:100CF000032C03D0A22108A003F0A0FA154904F0A8
:100D0000070208684FF6FF03184040EA0220124A23
:100D10001043086010BD00002E2E2F4472697665C6
:100D200072732F53544D3332463178785F48414CBB
:100D30005F4472697665722F5372632F73746D33DB
:100D400032663178785F68616C5F636F7274657862
:100D50002E6300000CED00E00000FA0510B50C0653
:100D600005D501F07F0100EB4110283003E000EBD6
:100D7000411000F50A7099B232B101228272C1802D
:100D8000190C0181002010BD002282728180F9E7D8
:100D9000704700EB4112D0F85C04D26B02F035B919
:100DA00000EB4112D0F85C04D2F83C2202F082B988
:100DB00010B504460A460B0601F07F0004EB401113
:100DC00001D5283101E001F50A710870D009487099
:100DD00094F82804012809D0012084F82804206808
:100DE00002F096FD002084F8280410BD022010BDFA
:100DF00070B50A460446090602F07F0003D504EBED
:100E00004011283103E004EB421101F50A7100257D
:100E10008D700870D009487094F82804012809D012
:100E2000012084F82804206802F020FE84F8285469
:100E3000002070BD022070BD10B5044690F8280453
:100E400001280AD0012084F82804080607D501F0FB
:100E50007F01206802F042FF04E0022010BD2068FC
:100E600002F03AFF002084F8280410BD01F00F01C1
:100E700000EB4110B0F8440280B2704770B50446F0
:100E80000D460E0601F07F0004EB401101D528311C
:100E900001E001F50A710870E80948700A61CB7039
:100EA00094F82804012809D0012084F82804206837
:100EB00002F0FEFB002084F8280470BD022070BD03
:100EC00070B50C4601F07F0500EB4511C1E98F2399
:100ED0000022C1F8442281F8292281F8285201F524
:100EE0000A716206006802F01BFE002070BD70B53A
:100EF0000D460446090605F07F0003D504EB4011BA
:100F0000283103E004EB451101F50A7101228A70D2
:100F10000870E809487094F82804012807D084F87C
:100F20002824206802F0D7FD680602D006E00220DF
:100F300070BD04F22C41206802F096FD002084F878
:100F4000280470BD70B50C4601F07F0500EB45111B
:100F5000C1E90F2300224A64012281F8292001F807
:100F6000285F6206006802F0DBFD002070BD10B54E
:100F70000446006802F0C0FE000402D5204601F0DD
:100F800027F9206802F0B8FE40050CD5206830F83B
:100F9000441F21F480610180204600F01BF90021EC
:100FA000204600F02CF9206802F0A6FE400405D58A
:100FB000206830F8441F21F480410180206802F04D
:100FC0009BFE800405D5206830F8441F21F40051B1
:100FD0000180206802F090FEC00414D5206830F82B
:100FE000401F21F004010180206830F8401F21F0EB
:100FF00008010180204600F0FAF8206830F8441F0C
:1010000021F480510180206802F076FE00051AD597
:10101000206830F8401F41F008010180206830F856
:10102000441F21F400610180206830F8401F41F026
:1010300004010180206802F05FFEC043C00402D5B5
:10104000204600F011F9206802F056FE800508D510
:10105000206830F8441F21F400710180204600F020
:10106000CAF8206802F048FEC00505D5206830F8AF
:10107000441F21F48071018010BD00002DE9F04172
:1010800086B004004FF000050CD03049206888423B
:1010900003D09F212EA003F0D1F894F82904002654
:1010A00020B108E0012006B0BDE8F08184F8286492
:1010B000204600F069F8032084F82904206802F033
:1010C000CCFC04F11001142288466846FFF73AF878
:1010D00094E80F0002F01AFC0021206802F01FFEC5
:1010E0005FF0010704EB451080F8297000F8285FD5
:1010F0008581C670066146616D1C86610F2DF1D336
:101100005FF0000004EB401181F8296281F82802A9
:10111000888681F82B62C1F83862C1F83C62401CB5
:10112000C1F840620F28EDD3142241466846FFF70C
:1011300009F894E80F0002F081FC84F8246084F838
:101140002974206802F078FC0020ACE7005C0040C5
:101150002E2E2F447269766572732F53544D33329D
:10116000463178785F48414C5F4472697665722FEA
:101170005372632F73746D3332663178785F6861B0
:101180006C5F7063642E630008B500680F49884285
:101190001AD10F48C16941F40001C161C069002240
:1011A00000F40000009011461320FFF747FD1320C4
:1011B000FFF714FD002211461420FFF73FFDBDE8A4
:1011C00008401420FFF70ABD08BD0000005C004085
:1011D0000010024010B504460121D0F85C0402F072
:1011E0005FF8D4F85C04BDE8104002F028B8D0F8ED
:1011F0005C0402F043B8D0F85C0402F045B810B5C6
:10120000044690F8280401280BD0012084F8280413
:1012100084F82410206802F084FD002084F828045B
:1012200010BD022010BDD0F85C2400F22C41104605
:1012300002F049B810B5044690F82804012810D0EF
:10124000012084F8280401462046FFF7A1FD20680C
:1012500002F0F0FB206802F038FD002084F828043A
:1012600010BD022010BD000010B50446D0F85C048B
:1012700002F076F8A069002804D00348016841F024
:101280000601016010BD000010ED00E02DE9F843FB
:1012900004460068504DC1070AD181076FD4C006CB
:1012A0007ED47C214DA002F0C9FF2078C00763D016
:1012B000606860B1B0F5807F09D0B0F5007F06D0DE
:1012C000B0F5407F03D0822144A002F0B7FFE86967
:1012D0000026C00008D4E86940F08050E861E86961
:1012E000012600F0805000904B480168C90512D4D7
:1012F0000168804641F480710160FFF7E7FB074613
:1013000005E000BFFFF7E2FBC01B642823D8D8F834
:101310000000C005F6D5286A10F4407021D0A188DD
:1013200001F4407181421CD0286A3C49012220F41A
:1013300040700A6000220A602862C00711D0FFF7DF
:10134000C5FB074641F2883808E000BFFFF7BEFB47
:10135000C11B414502D90320BDE8F883286A8007F4
:10136000F4D5286A616820F44070084328621EB1F1
:10137000E86920F08050E8612078800716D5A068E1
:1013800060B1B0F5804F09D0B0F5004F06D0B0F590
:10139000404F03D0C92111A002F050FF686800E05F
:1013A00007E0A16820F44040084368602078C00648
:1013B0000FD5E068B0F5800F05D020B140F22511BF
:1013C00006A002F03BFF6868E16820F48000084353
:1013D00068600020C0E70000001002402E2E2F445D
:1013E0007269766572732F53544D33324631787873
:1013F0005F48414C5F4472697665722F5372632F68
:1014000073746D3332663178785F68616C5F7263D4
:10141000635F65782E630000007000404004424224
:101420002DE9F0470E46050004D140F22E3181A08F
:1014300002F004FF2868C1070AD1810708D44107D8
:1014400006D4000704D440F22F317AA002F0F6FE51
:1014500046B1012E06D0022E04D04FF44C7175A077
:1014600002F0ECFEDFF80482D8F8000000F007007C
:10147000B0420CD2D8F8001021F007013143C8F86F
:101480000010D8F8000000F00700B04272D12878B0
:10149000774C80071CD5A868A0B1802812D090286E
:1014A00010D0A0280ED0B0280CD0C0280AD0D02848
:1014B00008D0E02806D0F02804D040F249315DA0E1
:1014C00002F0BCFE6068A96820F0F000084360608C
:1014D0002878C00753D0686868B1012821D0022855
:1014E00022D04FF4547153A002F0A8FE686801287E
:1014F00017D0022818D020688007002850DA6068CA
:10150000696820F0030008436060FFF7DFFA69684C
:10151000074641F28830012910D0022981461AD0AD
:1015200029E020688003E8E720688001E5E700BF44
:10153000FFF7CCFAC11B494501D918E08146606824
:10154000C0F381000128F3D119E000BFFFF7BEFA14
:10155000C11B49450BD86068C0F381000228F5D152
:101560000DE000BFFFF7B2FAC11B494503D90320C4
:10157000BDE8F08714E0606810F00C0FF2D1D8F8E5
:101580000010404601F00701B1420BD9016821F07B
:10159000070131430160006800F00700B04201D04C
:1015A0000120E5E728784FF4806640074FF4A067F4
:1015B0004FF4C0684FF4E06914D5E86860B1B042F8
:1015C0000AD0B84208D0404506D0484504D04FF470
:1015D000697118A002F032FE6068E96820F4E060EA
:1015E000084360602878000715D5286960B1B042CB
:1015F0000AD0B84208D0404506D0484504D040F251
:10160000AB310CA002F01AFE6068296920F460502A
:1016100040EAC100606000F057F86168154AC1F304
:101620000311515CC840144908600020FFF76EFAAE
:1016300000209DE72E2E2F447269766572732F531A
:10164000544D3332463178785F48414C5F4472697B
:101650007665722F5372632F73746D3332663178EF
:10166000785F68616C5F7263632E630000200240E4
:10167000001002405043000888050020014800681F
:101680007047000088050020044805490068496843
:10169000044AC1F30221515CC8407047880500200C
:1016A000001002406043000804480549006849688A
:1016B000044AC1F3C221515CC8407047880500202C
:1016C000001002406043000812A185B00FC98DE8E8
:1016D0000F0014A0144A006804905168134801F0E8
:1016E0000C03042B10D0082B0ED1C1F38343C90384
:1016F0001DF803000AD5516804AAC1F34041515CAA
:101700000A4A5043B0FBF1F005B07047084948431E
:10171000FAE7000002030405060708090A0B0C0D8E
:101720000E0F1010010200000010024000127A009B
:1017300000093D002DE9F84F040004D14FF4B871C1
:10174000F4A002F07BFD4FF0010A4FF000084FF4C7
:101750008039FE4EFE4D206860B1C1070DD1810772
:1017600063D401077ED440077DD440F27111E9A013
:1017700002F064FD2078C00754D060684FF4A027C1
:1017800040B1484506D0B84204D040F27711E1A0FC
:1017900002F054FD6868C0F38100012807D0686832
:1017A000C0F38100022809D16868C00306D5286803
:1017B000800337D56068002876D033E060684845FC
:1017C00003D1286840F4803009E008B1B8420DD058
:1017D000286820F480302860286820F48020286061
:1017E000606890B1FFF772F907460AE0286840F494
:1017F00080202860E5E700BFFFF768F9C01B642878
:1018000077D828688003F7D50CE0FFF75FF9074623
:1018100005E000BFFFF75AF9C01B6428F0D828681C
:101820008003F7D4207880074ED5206930B1012895
:1018300004D040F2AB11B7A002F000FD60691F2890
:1018400004D94FF4D671B3A002F0F8FC686810F028
:101850000C0F0AD06868C0F3810002280CD16868B8
:10186000C00301E033E06CE006D42868800713D59C
:101870002069012818D10FE02069B0B1C6F800A096
:10188000FFF724F9074604E0FFF720F9C01B022800
:10189000B6D828688007F7D52868616920F0F80075
:1018A00040EAC10028600FE033E1C6F80080FFF78E
:1018B0000DF9074605E000BFFFF708F9C01B022835
:1018C0009ED828688007F7D42078000736D5A14F26
:1018D000A06920B3012806D04FF4F6718DA002F064
:1018E000ADFCA069D8B1C7F800A0FFF7EFF8074634
:1018F00005E052E1FFF7EAF8C01B02288ED8686ABB
:101900008007F7D594484FF4FA510068B0FBF1F026
:10191000009000BF0098411E0091FAD20EE0C7F877
:101920000080FFF7D3F8074605E000BFFFF7CEF8C9
:10193000C01B0228ACD8686A8007F7D4207840071B
:101940006CD5E068002740B1012806D0052804D0F6
:1019500040F21B216FA002F071FCE869C00008D4BE
:10196000E86940F08050E861E869012700F08050A4
:1019700000907A480168C90512D4016841F4807169
:101980000160FFF7A3F8834606E000BFFFF79EF86B
:10199000A0EB0B00642893D870480068C005F5D50B
:1019A000E06801280AD008B1052811D0286A20F083
:1019B00001002862286A20F0040002E0286A40F052
:1019C00001002862E068A8B1FFF780F883460DE0C7
:1019D000286A40F004002862F0E700BFFFF776F8BD
:1019E000A0EB0B0141F28830814287D8286A80073A
:1019F000F4D50EE0FFF76AF8834607E0FFF766F8D4
:101A0000A0EB0B0141F28830814293D8286A80070D
:101A1000F4D41FB1E86920F08050E861E069002843
:101A200076D0012809D0022807D040F2B92139A088
:101A300002F004FCE06900286AD06868C0F3810005
:101A4000022866D0E069022805D0C6F86080FFF75A
:101A50003DF80446A4E0206A30B1484504D040F285
:101A6000C2212CA002F0EAFB606A70B3B0F5802FAF
:101A70002BD0B0F5002F28D0B0F5402F25D0B0F5F1
:101A8000801F22D0B0F5A01F1FD0B0F5C01F1CD002
:101A9000B0F5E01F19D0B0F5001F16D0B0F5101F3B
:101AA00013D0B0F5201F10D0B0F5301F0DD0B0F519
:101AB000401F0AD0B0F5501F07D0B0F5601F04D00A
:101AC00040F2C32113A002F0B9FBC6F86080FEF714
:101AD000FDFF074605E000BFFEF7F8FFC01B022828
:101AE0005BD828688001F7D4206A48450FD1A068E8
:101AF00038B1B0F5003F04D040F2D92105A002F082
:101B00009DFB6868A16820F400300843686027E006
:101B100049E04AE02E2E2F447269766572732F5386
:101B2000544D3332463178785F48414C5F44726996
:101B30007665722F5372632F73746D33326631780A
:101B4000785F68616C5F7263632E630000004242DD
:101B500000100240800442428805002000700040CE
:101B6000D4E908010843696821F4741108436860E6
:101B7000C6F860A0FEF7AAFF044604E0FEF7A6FF41
:101B8000001B022809D828688001F7D50BE000BFA8
:101B9000FEF79CFF001B022802D90320BDE8F88F46
:101BA00028688001F4D40020F8E70120F6E700005F
:101BB00010B54FF0E024042809D020B140F2D9112B
:101BC00005A002F03BFB206920F0040002E0206940
:101BD00040F00400206110BD2E2E2F4472697665FE
:101BE00072732F53544D3332463178785F48414CED
:101BF0005F4472697665722F5372632F73746D330D
:101C000032663178785F68616C5F636F7274657893
:101C10002E630000704710B5401EB0F1807F01D3E5
:101C2000012010BD4FF0E02460610F21601700F02B
:101C3000BFFA0020A06107202061002010BD10B570
:101C4000FFF7E8FF10BD000070B5040020D0A069C8
:101C500030490028304A314B20681BD088420AD0D6
:101C6000904208D0984206D040F20F112CA002F00A
:101C7000E5FAA069C8B1A069B0F5807F15D0B0F5CC
:101C8000007F12D0B0F5407F0FD04FF4887109E08B
:101C9000012070BD884208D0904206D0984204D0FE
:101CA0004FF48A711EA002F0C9FAA06838B1B0F5ED
:101CB000805F04D04FF48B7119A002F0BFFA94F842
:101CC0003900002520B984F83850204600F046F845
:101CD000242084F839002068C16821F40051C160D3
:101CE000204600F09FFC2068016921F490410161C9
:101CF0002068416921F02A0141612068C16841F4EE
:101D00000051C160E563202084F8390084F83A006E
:101D1000002070BD003801400044004000480040F1
:101D20002E2E2F447269766572732F53544D3332C1
:101D3000463178785F48414C5F4472697665722F0E
:101D40005372632F73746D3332663178785F6861D4
:101D50006C5F756172742E63000000002DE9F04124
:101D600004464C4E03684C4802210322002580277C
:101D700086B04FF01008B34243D1C36943F4003337
:101D8000C361C069454E00F4003004900420CDE9E1
:101D90000001039269463046FEF7CEFC0820CDE9EB
:101DA0000005694630460295FEF7C6FC3D4E3C48AC
:101DB000C6E90005C6E9025735617561B56130466F
:101DC000F561FEF7F1FB18B1902137A001F0C4FFD7
:101DD00066637462334E324844361430C6E90257A3
:101DE00035617561B561F561C6E900083046FEF7F9
:101DF000DBFB08B1A02148E02663746206B0BDE8B1
:101E0000F0812E4EB342F9D1C36943F48023C361FC
:101E1000C069039200F4802004903015CDE90001E0
:101E2000274E69463046FEF787FCF014CDE90005E1
:101E3000694630460295FEF77FFC1A4E18488836F0
:101E40003C38C6E90005C6E9025735617561B561E0
:101E50003046F561FEF7A8FB18B1CB2112A001F0C6
:101E60007BFF666374620F4E0D48CC365038C6E96E
:101E7000025735617561B561F561C6E90008304604
:101E8000FEF792FB0028B7D0DB2107A001F064FF2A
:101E9000B2E700000044004000100240000801408A
:101EA0006C000240AC0600202E2E2F436F72652F6F
:101EB0005372632F75736172742E63000048004083
:101EC000000C01402DE9F843044690F839001F4604
:101ED00016460D46202850D1A5B19EB194F8380081
:101EE00001284AD0012084F838004FF00008C4F8D7
:101EF0003C80212084F83900FEF7E8FDA684814665
:101F0000E68426E00120BDE8F883E08C401EE084F2
:101F1000A0684B46B0F5805F4FF000024FF08001A3
:101F20002046009703D000F081FCE8B90DE000F0F6
:101F30007DFCC8B928882168C0F308004860206982
:101F400008B16D1C05E0AD1C03E0216815F8010B1C
:101F50004860E08C0028D8D14B4600224021204622
:101F6000009700F063FC08B10320CCE7202084F840
:101F7000390084F838800020C5E70220C3E7FEE777
:101F8000154808B5416941F00101416140690022ED
:101F900000F00100009011460C20FEF74FFE0C20CF
:101FA000FEF71CFE002211460D20FEF747FE0D2015
:101FB000FEF714FE002211461020FEF73FFE10200F
:101FC000FEF70CFE002211461120FEF737FEBDE899
:101FD00008401120FEF702BE001002402DE9F0413A
:101FE000374886B0816941F010018161816901F053
:101FF00010010491816941F020018161816901F042
:1020000020010491816941F004018161816901F03D
:1020100004010491816941F0080181618069294FBF
:1020200000F008004FF40054049000222146384686
:10203000FEF716FDDFF890800022C0214046FEF733
:102040000FFD009401AA01240025022682E87000F9
:1020500069463846FEF770FB48F2F3700327CDE976
:10206000000769461948FEF767FB4FF20F30CDE9CC
:10207000000769464046FEF75FFB102000901448B9
:10208000CDE9010469464046FEF756FB2020CDE924
:102090000005694602944046FEF74EFBC0208DE8DD
:1020A000710069464046FEF747FB002205210A20E1
:1020B000FEF7C4FD0A20FEF791FD06B0BDE8F081F1
:1020C0000010024000100140000C014000080140D7
:1020D000000011100D4810B50B4901604FF4E131BB
:1020E0004160002181600C22C160C0E9041281615D
:1020F000C161FFF7A9FD002805D0BDE810405221BD
:1021000003A001F029BE10BD004400402C060020B1
:102110002E2E2F436F72652F5372632F757361726A
:10212000742E63000D4810B50B4901604FF4E13186
:102130004160002181600C22C160C0E9041281610C
:10214000C161FFF781FD002805D0BDE81040652181
:1021500003A001F001BE10BD004800406C06002045
:102160002E2E2F436F72652F5372632F757361721A
:10217000742E630010B500220849094800F010FFD2
:102180000849074801F03AF90749054800F0F6FB0D
:10219000BDE81040024801F07FB900002000002097
:1021A000BC070020900500206C050020FEE770476A
:1021B0000907090E002806DA00F00F0000F1E02000
:1021C00080F8141D704700F1E02080F8001470477B
:1021D0002DE9FC5F4FF000080446ADF80480ADF82F
:1021E000008048F60F7B4FF002094FF4806692E1C1
:1021F000BDF8041011F00F072BD030F82710ADF800
:102200000010BDF80010090478D530F8272040F6FA
:102210008F710A4020F8272004EB471595F8320209
:1022200005F50A750028206869D0297830F8212042
:1022300052047DD5B0F8503009EBC101194406EBCA
:102240004101415AC1F309015FEA010A71D0EA88EC
:10225000D0E0BDF80410C9062AD4018801EA0B01B8
:102260000180206804F12805B0F850202B7809EB94
:10227000C301114406EB4101405AC0F309006064F8
:10228000E16B0844E06300212046FEF782FD94F8EC
:1022900024000028ABD0A8690028A8D194F8240015
:1022A000216840F08000A1F84C0084F8248032E1DD
:1022B000018804F50A75ADF80010BDF80010090595
:1022C0001ED5B0F850302978062202EBC10119441E
:1022D00006EB4101405A04F22C41C0F30903EB61C3
:1022E000AA88206801F00CFD2068018840F68F72F2
:1022F000114001802046FEF796FF0CE1A0E055E07A
:10230000BDF800100904D2D5028840F68F710A404A
:1023100002802068B0F850302978062202EBC10113
:10232000194406EB4101405A83059B0DEB6101E026
:1023300051E063E008D0AA886969206801F0E0FCF8
:10234000E96968690844686100212046FEF728FDB4
:102350002068B0F85010891D06EB4101014428693E
:102360003E280CD9C0F34F12C00601D1521E92B2C2
:102370004FF6FF7000EA822040F4004009E0C0F30D
:102380004F02C00701D0521C92B24FF6FF7000EA14
:1023900082200860216808884BF68F72104080F414
:1023A000405048F2800210430880B4E0B0F850205A
:1023B0002B78062101EBC301114406EB4101415A80
:1023C000C1F309015FEA010A24D0AA88534669696A
:1023D00001F096FC1EE0B0F85020062303EBC1018B
:1023E000114406EB4101415AC1F309015FEA010AB8
:1023F00004D02A895346696901F082FC2978206853
:1024000030F8213048F68F72134048F2C00213436F
:1024100020F82130E96901EB0A00E861696901EB04
:102420000A026A61AB6913B12869504504D9297859
:102430002046FEF7B5FC03E029782046FEF740FD74
:10244000BDF80000000666D5206804EB471530F89B
:10245000271001EA0B0120F8271095F832002835E3
:102460000028206812D0297830F82120B0F85030A8
:1024700052061ED509EBC101194406EB4101405A31
:1024800083059B0DEB6124D0EA881EE0B0F8503044
:102490002A7809EBC201194406EB4101405A830531
:1024A0009B0DEB6121D0AA886969206801F03FFC8F
:1024B0001BE0062202EBC101194406EB4101405A20
:1024C00083059B0DEB6104D02A896969206801F0BE
:1024D0002EFC2978206830F8212048F68F731A40A6
:1024E0004CF280031A4320F821202068B0F85020D5
:1024F0002B7809EBC301114406EB4101405AC0F3AC
:102500000900E86169690A186A612978AB6920469F
:1025100063B1FEF717FD2068B0F84410ADF8041061
:1025200009043FF565AE0020BDE8FC9FFEF731FCD5
:10253000F1E77047704710B5FEF7CEFABDE81040DE
:10254000FFF77DBB30B593B001210804CDE9001041
:102550000024029402250491CDE90750000109905E
:102560006846FFF7E7F808B1C42117E00F20CDE96E
:102570000A054FF48060CDE90C4001210AA80E94B1
:10258000FEF74EFF08B1D22108E010200F90800422
:1025900012900FA8FEF77AFE18B1D9210AA001F017
:1025A000DBFBFFF76BF84FF47A71B0FBF1F0FFF74C
:1025B00032FB0420FFF7FCFA00221146501EFEF702
:1025C0003DFB13B030BD00002E2E2F436F72652FE0
:1025D0005372632F6D61696E2E6300000D480168B0
:1025E00041F00101016041680B4A114041600168FE
:1025F0000A4A11400160016821F4802101604168AC
:1026000021F4FE0141604FF41F0181600449C003C1
:1026100008607047001002400000FFF8FFFFF6FE60
:1026200008ED00E02DE9F041044640686E4988421B
:1026300004D340F6A7116DA001F000FEE06838B1A8
:10264000B0F5005F04D040F6A81168A001F0F6FDD7
:10265000206950B1B0F5806F07D0B0F5C06F04D0DD
:1026600040F6A91161A001F0E9FD60694FF6F37130
:10267000084200D120B940F6AA115CA001F0DEFDAD
:1026800020680169E26821F4405111430161216928
:10269000A0680843616908432168CA6841F20C6375
:1026A0009A430243CA6020684169A26921F44071DB
:1026B000114341615C4920686425322688423CD13F
:1026C000FEF7F2FF00EBC00101EB0010616889002A
:1026D000B0FBF1F7FEF7E8FF00EBC00101EB0010E3
:1026E0006168B0468900B0FBF1F0B0FBF5F06FF027
:1026F0001801484307EB800106EB0110B0FBF5F031
:1027000000F0F006FEF7D0FF00EBC00101EB001077
:1027100061688900B0FBF1F0B0FBF5F006EB001644
:10272000FEF7C2FF00EBC00101EB001061688900F9
:10273000B0FBF1F7FEF7B8FF3BE0FEF7A5FF00EBBB
:10274000C00101EB001061688900B0FBF1F7FEF7F2
:102750009BFF00EBC00101EB00106168B0468900EF
:10276000B0FBF1F0B0FBF5F06FF01801484307EB58
:10277000800106EB0110B0FBF5F000F0F006FEF76B
:1027800083FF00EBC00101EB001061688900B0FB22
:10279000F1F0B0FBF5F006EB0016FEF775FF00EB6D
:1027A000C00101EB001061688900B0FBF1F7FEF792
:1027B0006BFF00EBC00101EB001061688900B0FB0A
:1027C000F1F0B0FBF5F06FF01801484307EB800122
:1027D00008EB0110B0FBF5F0216800F00F00304469
:1027E0008860BDE8F081000021AA44002E2E2F440D
:1027F0007269766572732F53544D3332463178784F
:102800005F48414C5F4472697665722F5372632F43
:1028100073746D3332663178785F68616C5F7561AF
:1028200072742E6300000000003801402DE9F04171
:10283000984617460E460446069D1DE0681C1BD0B0
:102840002DB1FEF743F9A0EB0800A84214D9206887
:10285000C16821F4D071C1602068416921F0010193
:102860004161202084F8390084F83A00002084F87F
:1028700038000320BDE8F0812068006836EA0000D7
:1028800004D00020B842D9D00020F3E70120F9E7B6
:10289000D0F81802002180F824100846704770B55F
:1028A0000546D0F81842D5F81C226178D268207805
:1028B0009047142322460121284600F0B0FC002056
:1028C00070BD10B50446812100F08FFB0121204628
:1028D00000F08BFBD4F8180250B1D4F81C0204F5B8
:1028E000067480688047206800F0DDFE00202060CC
:1028F000002010BD10B5D0F81842216A012908D176
:10290000D0F81C0223786178C268184690470020EE
:102910002062002010BD000029210180004870477E
:10292000CC0500200A2101800048704704060020E1
:1029300070B50646002540230322812100F05CFC8F
:10294000402303220121304600F056FC282000F0ED
:10295000ABFEC6F8180278B10446002084F82400C3
:10296000D6F81C02406880471423224601213046D5
:1029700000F055FC284670BD0125FBE70246022009
:10298000002902D00020C2F81C12704710B513466F
:1029900090F8FC41D0F81822032C09D192F8244079
:1029A00034B9012482F824400A46812100F0E1FC78
:1029B000002010BD2DE9F0418046D0F818420026D5
:1029C00008780D46374610F0600070D0202810D1EE
:1029D000687801260C286BD2DFE800F09A541A0CB4
:1029E0009A9A9A9A9A21130667A001F0D5F9A878C5
:1029F0006061C6E06CA001F0CFF9012204F114017E
:102A0000B5E071A001F0C8F96888000AA061B8E0DB
:102A100074A001F0C1F9012204F11801A7E078A027
:102A200001F0BAF92662AA792146404600F082F9FF
:102A30006888000A0228DCD00328DAD177A001F0E8
:102A4000ABF90021404600F07AFB0646A878012841
:102A500011D1EA889AB121467648FDF773FB00212F
:102A6000404600F05CFB0020206284F824003146E0
:102A700071A001F091F974490920087081E00420E7
:102A8000E880F8E771A001F087F96888000A01285A
:102A90003AD0032875D174A001F07EF9A9780129F4
:102AA0001FD00520022904D003291AD10FE036E0F7
:102AB0002EE0E98849B10220207070486670A67047
:102AC0000088E070000A20710BE0E88009E0E988E6
:102AD000C1B103202070F4206070A6700820E0705F
:102AE000267167A001F058F9002669A0A15D01F0E8
:102AF00053F9761C052EF8DB5FA001F04DF9AA7999
:102B0000214634E0E8803CE063A001F045F938E07C
:102B10002946404600F003F90220BDE8F08163A099
:102B200001F03AF96878062804D00A2823D00B2847
:102B300027D124E065A001F02FF968882221B1EBAC
:102B4000102F09D1EE8840F20E50864200D9064679
:102B5000D8F81C02076808E02121B1EB102F04D13E
:102B6000EE88624F092E00D9092632463946404682
:102B700000F0FAF805E0012204F11C01F7E7A8785B
:102B8000E0610020C9E70000435553544F4D5F48B2
:102B900049445F5245515F5345545F50524F544F23
:102BA000434F4C0D0A000000435553544F4D5F48AE
:102BB00049445F5245515F4745545F50524F544F0F
:102BC000434F4C0D0A000000435553544F4D5F488E
:102BD00049445F5245515F5345545F49444C450D4C
:102BE0000A000000435553544F4D5F4849445F521B
:102BF00045515F4745545F49444C450D0A0000006C
:102C0000435553544F4D5F4849445F5245515F53BC
:102C100045545F5245504F52540D0A005345545F7E
:102C20005245504F52545F666561747572650D0A66
:102C3000000000000A0000206C61737453697A3A46
:102C40002025690D0A000000000000204355535460
:102C50004F4D5F4849445F5245515F4745545F526D
:102C600045504F52540D0A00636173652048494432
:102C70005F464541545552450D0A00005A00002058
:102C80005265706F72745F6275663A2000000000D2
:102C90002025303278000000636173652048494484
:102CA0005F494E5055540D0A000000006361736582
:102CB000205553425F5245515F545950455F53541C
:102CC000414E444152440D0A0000000063617365A7
:102CD000205553425F5245515F4745545F44455329
:102CE00043524950544F520D0A000000F80500208D
:102CF00010B5D0F8142252689047002010BD13463A
:102D000010B50A46002100F08AFA002010BD1346D3
:102D100010B50A46002100F02CFB002010BD10B5B4
:102D20000446802100F0FCFA2046BDE81040002156
:102D300000F0F6BA10B50323C0F80821C0F8F4314A
:102D4000C0F80C2113460A46002100F068FA002062
:102D500010BD10B505210023C0F8F4111A4619461C
:102D600000F05DFA002010BD10B502238261C0F8AA
:102D7000F431C26113460A46002100F0FAFA00203D
:102D800010BD10B504210023C0F8F4111A461946ED
:102D900000F0EFFA002010BD10B50A46024903A06A
:102DA00000F0DBF8004810BD6C0E00204375737412
:102DB0006F6D2048494420436F6E666967000000CC
:102DC00012200880004870474000002010B50A46D5
:102DD000024903A000F0C1F8004810BD6C0E0020AD
:102DE000437573746F6D2048494420496E74657251
:102DF0006661636500000000042008800048704799
:102E00003C00002010B50A46024903A000F0A5F8D6
:102E1000004810BD6C0E002052414D3634000000B9
:102E200010B50A46024903A000F097F8004810BD0B
:102E30006C0E0020484944504944437573746F6DCB
:102E40000000000010B50A46024903A000F085F812
:102E5000004810BD6C0E0020303030303030303043
:102E60003030314100000000F8B5044648880D4676
:102E7000010A082954D2DFE801F05304091753531B
:102E80004951D4F81012207C0A6819E0207C0226EF
:102E90000028D4F8140205D0C16A68468847014664
:102EA00046704AE0816AF8E7C1B2062926D2DFE817
:102EB00001F0030A0F14191ED4F81012207C4A687E
:102EC0006946904718E0D4F81012207C8A68F7E72A
:102ED000D4F81012207CCA68F2E7D4F81012207CD3
:102EE0000A69EDE7D4F81012207C4A69E8E7D4F8C3
:102EF0001012207C8A69E3E701461EE0C1B2D4F8D3
:102F000014026A46836B20469847F5E7207C38B95F
:102F1000D4F81402416B68468847EDE7207C20B165
:102F200029462046FFF7FBFEF8BDD4F81402016BDA
:102F300068468847014607204870BDF80000002811
:102F4000F2D0EA88002AEFD0824200D90246ADF8DA
:102F500000202046FFF708FFF8BD70B500230028C9
:102F60001DD00446002502E06D1CEDB2641C2678DD
:102F7000002EF9D1022404EB45041480CC545B1CD0
:102F80000322CA5400245B1C06E0CA545B1CDAB25C
:102F90008C54521CD3B2401C0278002AF5D170BD6B
:102FA00010B580B1D0F8143213B10023C0F8143238
:102FB00009B1C0F81012012180F8FC11027000F074
:102FC000C3F8002010BD022010BD10B50024D0F8B9
:102FD0002002FDF70DFF30B1012801D0022801D0F9
:102FE000022400E00124204610BD10B50024D0F8D2
:102FF0002002FDF7DDFE30B1012801D0022801D00A
:10300000022400E00124204610BD2DE9F0411746BE
:10301000044641B1D4F8140242698AB394F8FC0121
:10302000032842D043E0D4F8F411002504F1140041
:10303000022933D1D0E902639E4207D9F31A836093
:103040009AB239462046FFF762FE12E04068B0FBB4
:10305000F3F103FB1101A1B9984212D3D4F8F8118E
:1030600088420ED2002211462046FFF750FEC4F8D7
:10307000F85100231A461946204600F0D0F80DE01A
:1030800012E0D4F81402C16829B194F8FC010328B5
:1030900001D1204688472046FFF75BFE94F80002E6
:1030A000012804D184F8005201E020469047002016
:1030B000BDE8F08170B51546044641B1D4F814025C
:1030C00082693AB394F8FC01032824D025E0D4F8AF
:1030D000F41104F5827003291FD1D0E902218A423C
:1030E0000BD9531A83600846834200D303469AB231
:1030F00029462046FFF703FE0FE0D4F814020169C9
:1031000029B194F8FC01032801D1204688472046C4
:10311000FFF737FE01E020469047002070BD10B554
:103120000024D0F82002FDF787FE30B1012801D03D
:10313000022801D0022400E00124204610BDD0F86E
:103140002002FDF793BE000010B51B490446C1F8EC
:103150005C04C0F82012194808600820486002206A
:1031600088600020C8608861C86108620846FDF771
:1031700085FF20B14FF4997111A000F0EDFD002200
:10318000D4F820021823114604F50874FDF7E6FD73
:103190005823002280212068FDF7E0FD98230022BB
:1031A00081212068FDF7DAFDD82300220121206863
:1031B000FDF7D4FD002010BD0C0A0020005C00408B
:1031C0002E2E2F5553425F4445564943452F757364
:1031D00062645F636F6E662E630000000A06D0F8BB
:1031E000200201F07F0100EB411002D590F82A0087
:1031F000704790F82A02704770B51D4613460024A8
:10320000D0F820022A46FDF739FE30B1012801D05E
:10321000022801D0022400E00124204670BD10B530
:103220000024D0F82002FDF74BFE30B1012801D078
:10323000022801D0022400E00124204610BD70B510
:103240000022044640231146FFF7D6FF40252B46B7
:10325000002280212046C4F81051FFF7CDFF012045
:10326000256284F8FC01D4F8180228B1D4F81402BD
:103270002179426820469047002070BD90F8FD11EA
:1032800080F8FC110020704710B590F8FC1103295C
:1032900004D1D0F81412C96901B18847002010BDCB
:1032A00001740020704710B50024D0F82002FDF70B
:1032B000A6FF30B1012801D0022801D0022400E08D
:1032C0000124204610BD70B5044600F50270054685
:1032D00000F060F80120C4F8F401B4F80E02C4F85C
:1032E000F80194F8080210F01F010AD001290DD04E
:1032F000022910D000F08001204600F011F80020D3
:1033000070BD2946204600F0CCF8F8E72946204653
:1033100000F0AFF9F3E72946204600F03CF9EEE76C
:1033200010B50024D0F82002FDF7E1FD30B10128EE
:1033300001D0022801D0022400E00124204610BD63
:1033400010B50024D0F82002FDF774FF30B1012839
:1033500001D0022801D0022400E00124204610BD43
:1033600090F8FC1180F8FD11042180F8FC11002078
:10337000704710B50024D0F82002FDF7E3FD30B10E
:10338000012801D0022801D0022400E001242046B7
:1033900010BD000070B505460C4611A000F0FCFC05
:1033A000002613A0A15D00F0F7FC761C082EF8DBC8
:1033B00011A000F0F1FC2078287060786870A07887
:1033C000E17800EB012068802079617900EB012031
:1033D000A880A079E17900EB0120E88070BD0000B1
:1033E00073657475705061636B65743A20000000FA
:1033F00020253032780000000D0A0000024600202F
:1034000011B1C2F8141270470220704710B5D0F8FD
:10341000142202241AB11268904700B900242046F1
:1034200010BD000070B50E461A4D8978044629700B
:10343000012928D894F8FC01022802D0032822D1BF
:1034400005E099B10320616084F8FC0109E091B1C5
:10345000606888420AD0C1B22046FFF749FC29784B
:1034600061602046FFF7D2FF02280CD02046BDE85D
:103470007040FFF786BC022084F8FC0120466160A2
:10348000FFF736FCF2E731462046BDE87040FFF713
:1034900046BC00008C05002010B5FFF751FF00204E
:1034A00010BD2DE9F04100264B78012532460A2B4C
:1034B00043D2DFE803F03C595454420805422A271E
:1034C000FFF7D2FC64E004468888C8B9C888B8B958
:1034D000887800F07F0794F8FC01032810D084F866
:1034E000FE7139462046FFF7DEFE2046FFF749FC15
:1034F0001FB1022084F8FC014AE084F8FC5147E047
:1035000020461AE0FFF78EFF42E0CB88012B14D152
:1035100090F8FC31022B02D0032B0ED104E0826024
:10352000012200F1080114E00122011D11E090F8D0
:10353000FC21022A04D0032A02D0FFF7F0FB27E087
:10354000C560D0F8041209B10321C160022200F164
:103550000C01FFF709FC1BE0C4F8045210E004461C
:1035600048880128F8D013E0044690F8FC010228AE
:1035700001D00328C4D14888012809D1C4F8042205
:10358000D4F814028268204690472046FFF7F9FBE2
:103590003046BDE8F08170B50D4604462878002617
:1035A0000979C0F34110012806D06878A0B301283A
:1035B0001FD003283FD107E0D4F8140229468268BF
:1035C00020469047002070BD94F8FC01022817D0D7
:1035D00003282CD1688828B921B1802902D020463F
:1035E000FFF79EFED4F814022946826820469047D1
:1035F00013E094F8FC01022802D0032817D103E05D
:10360000C9B180291BD116E06888A0B9480604D04A
:103610002046FFF7DAFCE5E703E02046FFF7B1FBC1
:1036200009E094F8FC01022807D003280BD02946B2
:103630002046FFF774FB304670BD4806FBD020469D
:10364000FFF76EFEF7E7080601F07F0004EB0015B8
:1036500001D5143501E005F582752046FFF7BEFD62
:1036600000B101202860022229462046FFF77CFB9A
:10367000E1E770B5054690F8FC010C4603280DD132
:10368000207901280AD8D5F8140282682846904784
:10369000E08830B92846FFF774FB02E02846FFF7C0
:1036A0003EFB002070BD704700487047E0090020D5
:1036B0002DE9F047CC780A7848F68F1334B1012C05
:1036C0006DD0022C08D0032C13D10BE030F822402F
:1036D0001C4044F400730AE030F822401C4020F8FB
:1036E000224006E030F822401C4044F4C06320F839
:1036F00022300C7830F8245048F68F72154048F28A
:1037000080031D43254320F824508D7A48F6BF7965
:1037100004274BF68F7A48F2C0044CF28006EDB3D2
:103720000D7830F825C048F280180CEA020C4CEAFB
:10373000080C20F825C0CD88B0F850C025F0010550
:1037400091F800800CEBC80C00EB4C0CCCF800544A
:103750000D89B0F850C025F0010591F8008007EB05
:10376000C807674400EB4707C7F800544D78002DA1
:103770000D7830F825704FEA47477DD0002F05DAE5
:1037800030F825701740374320F825700D7830F851
:1037900025707F0608D530F8257001E024E01DE093
:1037A0001740274320F825700C7830F82450154036
:1037B000354320F824500C7830F8242002EA09021E
:1037C0001A4320F824200A7830F8221001EA0A016E
:1037D000194320F822100020BDE8F08730F822407D
:1037E0001C4044F4806382E74D78F5B18D88B0F8D1
:1037F000506025F001050F7806EBC70600EB460682
:10380000C6F800540D7830F82560760605D530F8F6
:1038100025601640264320F825600A7830F82210EB
:1038200001EA090181F02001D2E78C88B0F85050FC
:1038300024F0010491F800C007EBCC073D4400EBF5
:103840004505C5F80044B0F850400D78062707EB51
:10385000C5052C4400EB44070C694FF6FF7C07F5C7
:1038600080673E2C0CD9C4F34F15E40601D16D1EC0
:10387000ADB20CEA852400E01EE044F4004407E009
:10388000C4F34F05E40701D06D1CADB20CEA8524EA
:103890003C600C7830F824506D0405D530F8245085
:1038A0001540354320F824500A7830F8221001EAF8
:1038B0000A0181F440518BE7002F05DA30F82570BA
:1038C0001740374320F825700D7830F825607606CC
:1038D00005D530F825601640264320F825600E787F
:1038E00030F826501540254320F826500C7830F843
:1038F000242002EA0A0282F440521A4320F82420CB
:103900000A7830F8221001EA090161E700207047C7
:103910002DE9F04391F80A8091F801C00A7848F641
:10392000BF774BF68F7948F2800348F2C0054CF21E
:10393000800648F68F74B8F1000F2ED0BCF1000F4E
:1039400030F822C04FEA4C4C4ED0BCF1000F07DAE1
:1039500030F822C00CEA040C4CEA060C20F822C015
:103960000A7830F822C05FEA4C6C07D530F822C0E4
:103970000CEA040C4CEA050C20F822C00A7830F856
:1039800022502540354320F822500C7830F824206E
:103990003A401A4320F824201BE0BCF1000F0ED05F
:1039A00030F82260760605D530F8226026402E4396
:1039B00020F822600A7830F8221039400EE030F802
:1039C00022506D0405D530F822502540354320F8AB
:1039D00022500A7830F8221001EA0901194320F830
:1039E00022100020BDE8F083BCF1000F07DA30F8A8
:1039F00022C00CEA040C4CEA060C20F822C00A781B
:103A000030F82260760605D530F8226026402E4335
:103A100020F822600E7830F8262022402A4320F831
:103A200026200C7830F8242002EA09021A4320F8F4
:103A30002420BFE7002070470020704700B5012117
:103A4000A0F840100021A0F84010A0F84410A0F801
:103A5000501000F03AF9002000BD30F8401F21F46A
:103A60003D410180002070470020704730B54D78FF
:103A70000A78002D48F68F7430F8225048F28003FF
:103A800012D06D0607D530F82250254048F2C00408
:103A9000254320F822500A7830F8221048F6BF74E7
:103AA000214081F0300111E06D0407D530F822503B
:103AB00025404CF28004254320F822500A7830F843
:103AC00022104BF68F74214081F44051194320F8A5
:103AD0002210002030BD10B50A7848F2800352B1A0
:103AE0004978002930F8221010D048F6BF742140E0
:103AF00081F010010FE001884BF6BF72114081F494
:103B0000805181F010011943018007E04BF68F745A
:103B1000214081F48051194320F82210002010BD6B
:103B20002DE9F0410D460646896995F801C000234C
:103B3000AA7A022728690C4648F28008BCF1010FD6
:103B400005D0814252D90446081AA8614FE081424B
:103B500003D90446081AA86100E0AB617AB128785D
:103B600036F820104906B6F8501007EBC00008449C
:103B700006EB4000C0F8004412D52A8911E0A3B238
:103B8000AA883046696900F0D2F8B6F85000297862
:103B900007EBC101084406EB4000C0F800441CE0FC
:103BA000EA88A3B23046696900F0C1F8687848F63F
:103BB0008F7110B1012807D00FE0287836F8202047
:103BC0000A4048F2C00105E0287836F820200A4073
:103BD0004CF280010A4326F82020297836F821008B
:103BE00048F6BF72104080F0300067E0AB610623FA
:103BF0004FF6FF701AB1BCF1000F1BD056E0B6F8BB
:103C000050102A783E2C03EBC202114406EB41020D
:103C100002F5806239D9C4F34F11E30632D000BFF8
:103C200000EA812040F4004002E000BF00EA812069
:103C300010603BE0B6F850102A783E2C07EBC20229
:103C4000114406EB410202F580620BD9C4F34F1117
:103C50005FEAC46C01D1491E89B200EA812141F4B6
:103C6000004108E0C4F34F015FEAC47C01D0491C65
:103C700089B200EA8121116069780029BFD0012949
:103C80000AD013E0491E89B2CAE7C4F34F01E30723
:103C9000CCD0491C89B2C9E7B6F85000297807EBA7
:103CA000C101084406EB4000C0F80044297836F80A
:103CB00021004BF68F72104080F4405040EA08001B
:103CC00026F821000020BDE8F08130F8401F41F4C3
:103CD0003F4101800020704700207047002070475E
:103CE0000148FDF744B900000C0A00200148FDF727
:103CF0003EB900000C0A0020B0F8440070470000F4
:103D00005B1C00EB42005B0800F5806006D000BF42
:103D100030F8042B21F8022B5B1EF9D170470020EC
:103D2000704711B98021A0F84C100020704710B5E1
:103D30005B1C00EB42005B0800F5806009D011F8C5
:103D4000012B5B1E11F8014B42EA042220F8042BE0
:103D5000F5D110BDFEE700000C4605462246294677
:103D600001A000F019F8F9E757726F6E67207061D3
:103D700072616D65746572732076616C75653A2049
:103D800066696C65202573206F6E206C696E6520F6
:103D900025640D0A000000000FB4054B10B503A9FF
:103DA000044A029800F018F810BC5DF814FB0000FB
:103DB000794200081006002002E008C8121F08C15E
:103DC000002AFAD170477047002001E001C1121F9C
:103DD000002AFBD1704700002DE9FF4F8DB00F4640
:103DE0000546002606E025280BD0DDE90F12904796
:103DF0006D1C761C28780028F5D111B03046BDE83E
:103E0000F08F0024A246A1460122EC4900E00443C1
:103E100015F8013F203B02FA03F00842F7D1287859
:103E20002A2810D06FF02F022878A0F1300109293C
:103E300014D80AEB8A0102EB410144F0020400EBC2
:103E4000010A6D1CF0E701CF5FEA000A03D544F4D4
:103E50000054CAF1000A44F002046D1C28782E2890
:103E600017D115F8010F44F004042A280ED06FF082
:103E70002F022878A0F1300109290AD809EB89011D
:103E800002EB410100EB01096D1CF2E757F8049BBE
:103E90006D1C28786C280FD006DC4C2817D06828B9
:103EA0000DD06A2814D104E0742810D07A280FD1DC
:103EB0000DE044F400140AE044F4801401E044F4FA
:103EC00040146978814202D104F580146D1C6D1C88
:103ED0002A786E2A1FD00CDC632A31D004DC002A39
:103EE0008BD0582A11D1A3E0642A68D0692A0CD15A
:103EF00065E0732A2ED004DC6F2A73D0702A04D1B7
:103F00009BE0752A6FD0782A6ED01046DDE90F123B
:103F10009047761C50E1C4F30250022806D00328D3
:103F200009D0042801CF09D0066045E101CFF1177F
:103F3000C0E9006140E101CF06803DE106703BE150
:103F400017F8040B8DF8000000208DF80100EB46F7
:103F5000012003E057F804BB4FF0FF3061074FF03A
:103F6000000102D40DE008F10101884649450FDA4D
:103F70008045F8DB1BF808100029F4D108E008F1AF
:103F8000010188468142FADB1BF808100029F6D1AE
:103F9000DDE90F23AAEB08008146214600F036F93F
:103FA000304400EB080604E0DDE90F121BF8010BBA
:103FB0009047B8F10108F7D221464846F7E00A21B8
:103FC000C4F302534FF0000B0891022B04D001CF31
:103FD000C117032B09D00AE0FF1D27F00707F7E8F8
:103FE000020108E032E01FE020E000B2C117042B1C
:103FF00001D140B2C117031E71F1000307DA4FF07F
:10400000000CD0EB0C006CEB01012D2302E023052A
:1040100004D52B238DF82430012303E0E30701D0DE
:104020002023F7E7984658E00A2110E010210EE01F
:1040300010204FF0000B08900CE010214FF0000B07
:1040400044F004044FF00809089103E008214FF000
:10405000000B0891C4F30253022B04D001CF0021BE
:10406000032B06D006E0FF1D27F00707F7E8020143
:1040700003E080B2042B00D1C0B24FF00008230748
:104080002BD5702A07D0DDF820C08CF0100C5CEA2C
:104090000B0C05D00EE040238DF82430012308E0FE
:1040A00050EA010306D030238DF824308DF8252006
:1040B00002239846DDF820C08CF0080C5CEA0B0C5B
:1040C0000BD150EA010301D1630706D530238DF8E7
:1040D00024304FF00108A9F10109582A04D038A270
:1040E0000B9208AA0A920BE03AA2F9E75B46089AFB
:1040F000FCF73AF80B9B9B5C0A9A521E0A921370CB
:1041000050EA0102F2D10A98ADEB000000F1200B59
:10411000600702D524F4803401E04FF00109D9454D
:1041200002DDA9EB0B0000E0002000EB0B01414495
:104130000890AAEB010AE00306D4DDE90F2321462B
:10414000504600F063F806444FF0000908E009A962
:1041500011F80900DDE90F12904709F10109761CF9
:10416000C145F4DBE0030CD5DDE90F2321465046C1
:1041700000F04CF8064404E0DDE90F1230209047CF
:10418000761C0899481E08900029F5DC08E00A987A
:104190000A990078491C0A91DDE90F129047761CB4
:1041A000BBF10001ABF1010BF1DC21465046DDE92A
:1041B0000F2300F019F806446D1C1BE609280100C6
:1041C000303132333435363738396162636465668D
:1041D000000000003031323334353637383941424F
:1041E00043444546000000002DE9F0410446002507
:1041F0001E461746880404D405E039462020B047FF
:104200006D1C641EF9D52846BDE8F0812DE9F0410A
:10421000044600251E469046C80301D5302700E01D
:104220002027880404D505E041463846B0476D1C78
:10423000641EF9D52846BDE8F08100000A46014613
:1042400001A0FFF7A9BD000057726F6E6720706173
:1042500072616D65746572732076616C75653A2064
:1042600066696C65202573206F6E206C696E652011
:1042700025640D0A0000000013B54FF6FF730122FC
:1042800069460248FDF71EFE00981CBD2C06002062
:10429000284D00260A20C5E900601420A8601E20D1
:1042A000E860282028617F202875FF206875FCF7CA
:1042B0001BFCFEF747F9FDF791FEFDF761FEFDF7E8
:1042C00059FFFDF72FFFFDF705FF1BA0FFF764FD6A
:1042D0001D4C4FF00108A4F10E0728680A30286031
:1042E00084F80080010A6170A070A888010AE1705A
:1042F00020712889010A6171A071A889010AE17100
:104300002072288A010A6172A072287DE072687D9D
:1043100020733878012805D00D220B490B48FEF791
:1043200035FBDAE7084903220D390848FEF72EFB72
:104330003E70D2E71406002053657269616C576FB6
:10434000726B696E670D0A000F000020BC07002029
:104350000000000000000000010203040607080935
:104360000000000001020304884300080000002050
:10437000140600000E020008204700081406002062
:104380006C0E0000C83D000880060000021200010B
:1043900010080100253446520603110A100A12259E
:1043A0000000C12D0008F9041006052E00082104A4
:1043B00012450412991412CD14100904030C0412AE
:1043C00001000238600C4083041057000201020310
:1043D000014B1031F40005010904A101850105021A
:1043E00009C816018026FF7F363EFE46C2016512CF
:1043F00075109501810209C409C5150026FF0F3506
:104400000046FF0F14100402810234300801A1009D
:10441000093309341A71181014C00509190029103C
:104420001500250135004501750195102D90120FDD
:104430000992A1028502099F09A009A409A509A65C
:1044400020900A05810295038103099414217520A7
:104450000C2215012510350145107507851004C083
:10446000092143920117201408950191020925A101
:10447000020926092709300931093290100F094035
:104480000941094209430928250C150141320C2A2A
:10449000200900C0095009540951AF227FC91007F3
:1044A0007F66031055FDB6200B0391025500660090
:1044B000000952E51200E55310275D1253841208DB
:1044C000435208102355A1F9116B21E011BC1302CE
:1044D00091F120040F09561D1010950591030957FD
:1044E000A1020B01000A000B0205500666140055DC
:1044F000FE54200547A08C00651149520270213AF4
:1045000032A785819425711391022832551F365A9E
:1045100036E1F380045B095DAA214F3005095C098F
:104520005ECE15BB31454005910245004517095F38
:1045300079F603367623A1320453A258B8337502B4
:10454000D914081581257F36F0D80E4309607A51B9
:104550000E2004610962C5852E400509630964D9EE
:104560004309659515101004C0096E7BF204BEF670
:104570007066826F6A3122F6713911154272DC65FC
:10458000B5752613097366021005663B1600C9311E
:104590005641301004C009742BF2062B60067509D1
:1045A0007615808145A01004C009682BF207BC1263
:1045B0006CF4431027BC35AA270969262D1803255A
:1045C000DA10080C920201C009663B5A0827911DB7
:1045D000592C12771EF20A841A78C6180679097ABD
:1045E000097B716A03B0667CE616FF011004C009FE
:1045F000903A38060B09222510D6513A1004C0090A
:104600009617180E0C099709980999099A099B0998
:104610009CB4620643127D1DE4040D097E731004F0
:10462000C0096B19F60E9C826D725D02030A13516C
:10463000A149C03F09AB92030D2582031AB1D22CC8
:104640000401093B4904197A100646FF01750A1551
:104650002C06027506B1010A034A89EBA1DE140596
:10466000B102098B183C088C098D098E2503CC03F7
:1046700052034A280909AC150027FFFF0021210732
:1046800025E221173A7EEE2E80B8041A159C3123BC
:104690003121114C1A835051D9115A2C04A909AA5D
:1046A000C1036D08032189118F100F03C0C00000E2
:1046B0005C000020730200086F041279082D2B059E
:1046C0006E102F052004A24A0407100A31290008A1
:1046D000C3280008B5082D460512F50C12911043A9
:1046E0009F2810612F121928610452252C100B09E4
:1046F000022900010100C032094B230203122013DA
:104700002111010001220E05070581034000200749
:10471000050107A11A11844F0A06C4056DBB0500E7
:04000005080000ED02
:00000001FF
